{
  "_format": "hh-sol-artifact-1",
  "contractName": "MyToken",
  "sourceName": "contracts/MyToken.sol",
  "abi": [
    {
      "inputs": [
        {
          "internalType": "uint256",
          "name": "initialSupply",
          "type": "uint256"
        }
      ],
      "stateMutability": "nonpayable",
      "type": "constructor"
    },
    {
      "anonymous": false,
      "inputs": [
        {
          "indexed": true,
          "internalType": "address",
          "name": "from",
          "type": "address"
        },
        {
          "indexed": false,
          "internalType": "uint256",
          "name": "value",
          "type": "uint256"
        }
      ],
      "name": "Burn",
      "type": "event"
    },
    {
      "anonymous": false,
      "inputs": [
        {
          "indexed": true,
          "internalType": "address",
          "name": "to",
          "type": "address"
        },
        {
          "indexed": false,
          "internalType": "uint256",
          "name": "value",
          "type": "uint256"
        }
      ],
      "name": "Mint",
      "type": "event"
    },
    {
      "anonymous": false,
      "inputs": [
        {
          "indexed": true,
          "internalType": "address",
          "name": "from",
          "type": "address"
        },
        {
          "indexed": true,
          "internalType": "address",
          "name": "to",
          "type": "address"
        },
        {
          "indexed": false,
          "internalType": "uint256",
          "name": "value",
          "type": "uint256"
        }
      ],
      "name": "Transfer",
      "type": "event"
    },
    {
      "inputs": [
        {
          "internalType": "address",
          "name": "",
          "type": "address"
        },
        {
          "internalType": "address",
          "name": "",
          "type": "address"
        }
      ],
      "name": "allowance",
      "outputs": [
        {
          "internalType": "uint256",
          "name": "",
          "type": "uint256"
        }
      ],
      "stateMutability": "view",
      "type": "function"
    },
    {
      "inputs": [
        {
          "internalType": "address",
          "name": "",
          "type": "address"
        }
      ],
      "name": "balanceOf",
      "outputs": [
        {
          "internalType": "uint256",
          "name": "",
          "type": "uint256"
        }
      ],
      "stateMutability": "view",
      "type": "function"
    },
    {
      "inputs": [
        {
          "internalType": "uint256",
          "name": "amount",
          "type": "uint256"
        }
      ],
      "name": "burn",
      "outputs": [
        {
          "internalType": "bool",
          "name": "success",
          "type": "bool"
        }
      ],
      "stateMutability": "nonpayable",
      "type": "function"
    },
    {
      "inputs": [],
      "name": "decimals",
      "outputs": [
        {
          "internalType": "uint8",
          "name": "",
          "type": "uint8"
        }
      ],
      "stateMutability": "view",
      "type": "function"
    },
    {
      "inputs": [
        {
          "internalType": "address",
          "name": "to",
          "type": "address"
        },
        {
          "internalType": "uint256",
          "name": "amount",
          "type": "uint256"
        }
      ],
      "name": "mint",
      "outputs": [],
      "stateMutability": "nonpayable",
      "type": "function"
    },
    {
      "inputs": [],
      "name": "name",
      "outputs": [
        {
          "internalType": "string",
          "name": "",
          "type": "string"
        }
      ],
      "stateMutability": "view",
      "type": "function"
    },
    {
      "inputs": [],
      "name": "owner",
      "outputs": [
        {
          "internalType": "address",
          "name": "",
          "type": "address"
        }
      ],
      "stateMutability": "view",
      "type": "function"
    },
    {
      "inputs": [],
      "name": "symbol",
      "outputs": [
        {
          "internalType": "string",
          "name": "",
          "type": "string"
        }
      ],
      "stateMutability": "view",
      "type": "function"
    },
    {
      "inputs": [],
      "name": "totalSupply",
      "outputs": [
        {
          "internalType": "uint256",
          "name": "",
          "type": "uint256"
        }
      ],
      "stateMutability": "view",
      "type": "function"
    },
    {
      "inputs": [
        {
          "internalType": "address",
          "name": "to",
          "type": "address"
        },
        {
          "internalType": "uint256",
          "name": "amount",
          "type": "uint256"
        }
      ],
      "name": "transfer",
      "outputs": [
        {
          "internalType": "bool",
          "name": "success",
          "type": "bool"
        }
      ],
      "stateMutability": "nonpayable",
      "type": "function"
    }
  ],
  "bytecode": "0x60806040526040518060400160405280600381526020017f4173680000000000000000000000000000000000000000000000000000000000815250600090816200004a91906200041d565b506040518060400160405280600181526020017f4100000000000000000000000000000000000000000000000000000000000000815250600190816200009191906200041d565b506012600260006101000a81548160ff021916908360ff160217905550348015620000bb57600080fd5b50604051620016cd380380620016cd8339818101604052810190620000e191906200053a565b600260009054906101000a900460ff1660ff16600a620001029190620006ef565b816200010f919062000740565b600381905550600354600460003373ffffffffffffffffffffffffffffffffffffffff1673ffffffffffffffffffffffffffffffffffffffff1681526020019081526020016000208190555033600660006101000a81548173ffffffffffffffffffffffffffffffffffffffff021916908373ffffffffffffffffffffffffffffffffffffffff160217905550506200078b565b600081519050919050565b7f4e487b7100000000000000000000000000000000000000000000000000000000600052604160045260246000fd5b7f4e487b7100000000000000000000000000000000000000000000000000000000600052602260045260246000fd5b600060028204905060018216806200022557607f821691505b6020821081036200023b576200023a620001dd565b5b50919050565b60008190508160005260206000209050919050565b60006020601f8301049050919050565b600082821b905092915050565b600060088302620002a57fffffffffffffffffffffffffffffffffffffffffffffffffffffffffffffffff8262000266565b620002b1868362000266565b95508019841693508086168417925050509392505050565b6000819050919050565b6000819050919050565b6000620002fe620002f8620002f284620002c9565b620002d3565b620002c9565b9050919050565b6000819050919050565b6200031a83620002dd565b62000332620003298262000305565b84845462000273565b825550505050565b600090565b620003496200033a565b620003568184846200030f565b505050565b5b818110156200037e57620003726000826200033f565b6001810190506200035c565b5050565b601f821115620003cd57620003978162000241565b620003a28462000256565b81016020851015620003b2578190505b620003ca620003c18562000256565b8301826200035b565b50505b505050565b600082821c905092915050565b6000620003f260001984600802620003d2565b1980831691505092915050565b60006200040d8383620003df565b9150826002028217905092915050565b6200042882620001a3565b67ffffffffffffffff811115620004445762000443620001ae565b5b6200045082546200020c565b6200045d82828562000382565b600060209050601f83116001811462000495576000841562000480578287015190505b6200048c8582620003ff565b865550620004fc565b601f198416620004a58662000241565b60005b82811015620004cf57848901518255600182019150602085019450602081019050620004a8565b86831015620004ef5784890151620004eb601f891682620003df565b8355505b6001600288020188555050505b505050505050565b600080fd5b6200051481620002c9565b81146200052057600080fd5b50565b600081519050620005348162000509565b92915050565b60006020828403121562000553576200055262000504565b5b6000620005638482850162000523565b91505092915050565b7f4e487b7100000000000000000000000000000000000000000000000000000000600052601160045260246000fd5b60008160011c9050919050565b6000808291508390505b6001851115620005fa57808604811115620005d257620005d16200056c565b5b6001851615620005e25780820291505b8081029050620005f2856200059b565b9450620005b2565b94509492505050565b600082620006155760019050620006e8565b81620006255760009050620006e8565b81600181146200063e576002811462000649576200067f565b6001915050620006e8565b60ff8411156200065e576200065d6200056c565b5b8360020a9150848211156200067857620006776200056c565b5b50620006e8565b5060208310610133831016604e8410600b8410161715620006b95782820a905083811115620006b357620006b26200056c565b5b620006e8565b620006c88484846001620005a8565b92509050818404811115620006e257620006e16200056c565b5b81810290505b9392505050565b6000620006fc82620002c9565b91506200070983620002c9565b9250620007387fffffffffffffffffffffffffffffffffffffffffffffffffffffffffffffffff848462000603565b905092915050565b60006200074d82620002c9565b91506200075a83620002c9565b92508282026200076a81620002c9565b915082820484148315176200078457620007836200056c565b5b5092915050565b610f32806200079b6000396000f3fe608060405234801561001057600080fd5b506004361061009e5760003560e01c806370a082311161006657806370a08231146101495780638da5cb5b1461017957806395d89b4114610197578063a9059cbb146101b5578063dd62ed3e146101e55761009e565b806306fdde03146100a357806318160ddd146100c1578063313ce567146100df57806340c10f19146100fd57806342966c6814610119575b600080fd5b6100ab610215565b6040516100b891906109d9565b60405180910390f35b6100c96102a3565b6040516100d69190610a14565b60405180910390f35b6100e76102a9565b6040516100f49190610a4b565b60405180910390f35b61011760048036038101906101129190610af5565b6102bc565b005b610133600480360381019061012e9190610b35565b61047c565b6040516101409190610b7d565b60405180910390f35b610163600480360381019061015e9190610b98565b610608565b6040516101709190610a14565b60405180910390f35b610181610620565b60405161018e9190610bd4565b60405180910390f35b61019f610646565b6040516101ac91906109d9565b60405180910390f35b6101cf60048036038101906101ca9190610af5565b6106d4565b6040516101dc9190610b7d565b60405180910390f35b6101ff60048036038101906101fa9190610bef565b610924565b60405161020c9190610a14565b60405180910390f35b6000805461022290610c5e565b80601f016020809104026020016040519081016040528092919081815260200182805461024e90610c5e565b801561029b5780601f106102705761010080835404028352916020019161029b565b820191906000526020600020905b81548152906001019060200180831161027e57829003601f168201915b505050505081565b60035481565b600260009054906101000a900460ff1681565b600660009054906101000a900473ffffffffffffffffffffffffffffffffffffffff1673ffffffffffffffffffffffffffffffffffffffff163373ffffffffffffffffffffffffffffffffffffffff161461034c576040517f08c379a000000000000000000000000000000000000000000000000000000000815260040161034390610d01565b60405180910390fd5b600073ffffffffffffffffffffffffffffffffffffffff168273ffffffffffffffffffffffffffffffffffffffff16036103bb576040517f08c379a00000000000000000000000000000000000000000000000000000000081526004016103b290610d6d565b60405180910390fd5b80600460008473ffffffffffffffffffffffffffffffffffffffff1673ffffffffffffffffffffffffffffffffffffffff168152602001908152602001600020600082825461040a9190610dbc565b9250508190555080600360008282546104239190610dbc565b925050819055508173ffffffffffffffffffffffffffffffffffffffff167f0f6798a560793a54c3bcfe86a93cde1e73087d944c0ea20544137d4121396885826040516104709190610a14565b60405180910390a25050565b60008082116104c0576040517f08c379a00000000000000000000000000000000000000000000000000000000081526004016104b790610e3c565b60405180910390fd5b81600460003373ffffffffffffffffffffffffffffffffffffffff1673ffffffffffffffffffffffffffffffffffffffff168152602001908152602001600020541015610542576040517f08c379a000000000000000000000000000000000000000000000000000000000815260040161053990610ea8565b60405180910390fd5b81600460003373ffffffffffffffffffffffffffffffffffffffff1673ffffffffffffffffffffffffffffffffffffffff16815260200190815260200160002060008282546105919190610ec8565b9250508190555081600360008282546105aa9190610ec8565b925050819055503373ffffffffffffffffffffffffffffffffffffffff167fcc16f5dbb4873280815c1ee09dbd06736cffcc184412cf7a71a0fdb75d397ca5836040516105f79190610a14565b60405180910390a260019050919050565b60046020528060005260406000206000915090505481565b600660009054906101000a900473ffffffffffffffffffffffffffffffffffffffff1681565b6001805461065390610c5e565b80601f016020809104026020016040519081016040528092919081815260200182805461067f90610c5e565b80156106cc5780601f106106a1576101008083540402835291602001916106cc565b820191906000526020600020905b8154815290600101906020018083116106af57829003601f168201915b505050505081565b60008073ffffffffffffffffffffffffffffffffffffffff168373ffffffffffffffffffffffffffffffffffffffff1603610744576040517f08c379a000000000000000000000000000000000000000000000000000000000815260040161073b90610d6d565b60405180910390fd5b60008211610787576040517f08c379a000000000000000000000000000000000000000000000000000000000815260040161077e90610e3c565b60405180910390fd5b81600460003373ffffffffffffffffffffffffffffffffffffffff1673ffffffffffffffffffffffffffffffffffffffff168152602001908152602001600020541015610809576040517f08c379a000000000000000000000000000000000000000000000000000000000815260040161080090610ea8565b60405180910390fd5b81600460003373ffffffffffffffffffffffffffffffffffffffff1673ffffffffffffffffffffffffffffffffffffffff16815260200190815260200160002060008282546108589190610ec8565b9250508190555081600460008573ffffffffffffffffffffffffffffffffffffffff1673ffffffffffffffffffffffffffffffffffffffff16815260200190815260200160002060008282546108ae9190610dbc565b925050819055508273ffffffffffffffffffffffffffffffffffffffff163373ffffffffffffffffffffffffffffffffffffffff167fddf252ad1be2c89b69c2b068fc378daa952ba7f163c4a11628f55a4df523b3ef846040516109129190610a14565b60405180910390a36001905092915050565b6005602052816000526040600020602052806000526040600020600091509150505481565b600081519050919050565b600082825260208201905092915050565b60005b83811015610983578082015181840152602081019050610968565b60008484015250505050565b6000601f19601f8301169050919050565b60006109ab82610949565b6109b58185610954565b93506109c5818560208601610965565b6109ce8161098f565b840191505092915050565b600060208201905081810360008301526109f381846109a0565b905092915050565b6000819050919050565b610a0e816109fb565b82525050565b6000602082019050610a296000830184610a05565b92915050565b600060ff82169050919050565b610a4581610a2f565b82525050565b6000602082019050610a606000830184610a3c565b92915050565b600080fd5b600073ffffffffffffffffffffffffffffffffffffffff82169050919050565b6000610a9682610a6b565b9050919050565b610aa681610a8b565b8114610ab157600080fd5b50565b600081359050610ac381610a9d565b92915050565b610ad2816109fb565b8114610add57600080fd5b50565b600081359050610aef81610ac9565b92915050565b60008060408385031215610b0c57610b0b610a66565b5b6000610b1a85828601610ab4565b9250506020610b2b85828601610ae0565b9150509250929050565b600060208284031215610b4b57610b4a610a66565b5b6000610b5984828501610ae0565b91505092915050565b60008115159050919050565b610b7781610b62565b82525050565b6000602082019050610b926000830184610b6e565b92915050565b600060208284031215610bae57610bad610a66565b5b6000610bbc84828501610ab4565b91505092915050565b610bce81610a8b565b82525050565b6000602082019050610be96000830184610bc5565b92915050565b60008060408385031215610c0657610c05610a66565b5b6000610c1485828601610ab4565b9250506020610c2585828601610ab4565b9150509250929050565b7f4e487b7100000000000000000000000000000000000000000000000000000000600052602260045260246000fd5b60006002820490506001821680610c7657607f821691505b602082108103610c8957610c88610c2f565b5b50919050565b7f4f6e6c792074686520636f6e7472616374206f776e65722063616e207065726660008201527f6f726d207468697320616374696f6e0000000000000000000000000000000000602082015250565b6000610ceb602f83610954565b9150610cf682610c8f565b604082019050919050565b60006020820190508181036000830152610d1a81610cde565b9050919050565b7f496e76616c696420616464726573730000000000000000000000000000000000600082015250565b6000610d57600f83610954565b9150610d6282610d21565b602082019050919050565b60006020820190508181036000830152610d8681610d4a565b9050919050565b7f4e487b7100000000000000000000000000000000000000000000000000000000600052601160045260246000fd5b6000610dc7826109fb565b9150610dd2836109fb565b9250828201905080821115610dea57610de9610d8d565b5b92915050565b7f416d6f756e74206d7573742062652067726561746572207468616e207a65726f600082015250565b6000610e26602083610954565b9150610e3182610df0565b602082019050919050565b60006020820190508181036000830152610e5581610e19565b9050919050565b7f496e73756666696369656e742062616c616e6365000000000000000000000000600082015250565b6000610e92601483610954565b9150610e9d82610e5c565b602082019050919050565b60006020820190508181036000830152610ec181610e85565b9050919050565b6000610ed3826109fb565b9150610ede836109fb565b9250828203905081811115610ef657610ef5610d8d565b5b9291505056fea2646970667358221220e82fcc441994b4874c199d3a6304a00a5ea78271551862062b607f3bef82227f64736f6c63430008120033",
  "linkReferences": {},
  "deployedLinkReferences": {}
}